S02200004469676974616C47617264656E5F53656E736F725F42617369732E73726563C9
S113000013C02DC02CC02BC02AC029C028C027C0B3
S113001026C051C024C023C07EC021C020C01FC040
S11300201EC01DC01CC01BC011241FBECFEFD2E0D8
S1130030DEBFCDBF11E0A0E0B1E0EAEFF1E002C025
S113004005900D92A030B107D9F721E0A0E0B1E00E
S113005001C01D92A130B207E1F71CD0CCC0D0CFB3
S11300608FE084B985B1807F85B982B18B7F82B9F5
S113007081B1846081B90895EFE6F0E08081816008
S11300808083E1E8F0E08081836080830895E8DF85
S1130090F3DF0895FCDF8AD0789484B18E7F84B92D
S11300A0E8E6F0E0808182608083ECE6F0E0808125
S11300B081608083FFCF1F920F920FB60F9211249D
S11300C02F933F934F935F936F937F938F939F935C
S11300D0AF93BF93EF93FF935DD08DE05FD080919A
S11300E000018F70806A8093D200809100018F5F3D
S11300F080930001FF91EF91BF91AF919F918F91F8
S11301007F916F915F914F913F912F910F900FBE0F
S11301100F901F9018951F920F920FB60F921124F3
S11301202F933F934F935F936F937F938F939F93FB
S1130130AF93BF93EF93FF93E9ECF0E0808180816C
S113014081FF08C08CE02AD021D0E9ECF0E0808166
S1130150826080838091C90080FF07C08091D200B3
S1130160E9ECF0E0808181608083FF91EF91BF91A1
S1130170AF919F918F917F916F915F914F913F913B
S11301802F910F900FBE0F901F90189582B18B7F07
S113019082B9089582B1846082B90895E8ECF0E0F0
S11301A09081907F8F70892B80830895EEECF0E02E
S11301B080818083EDECF0E0808189618083ECECC8
S11301C0F0E0808180618083808180688083E8ECB6
S11301D0F0E0808188608083808180628083D6DFC4
S11301E08EE0DCDFEAECF0E0808182608083808155
S10D01F0816080830895F894FFCF26
S9030000FC
